:020000040800F2
:1000000068060020650200086D0200086F02000803
:100010007102000873020008750200080000000069
:10002000000000000000000000000000770200084F
:1000300079020008000000007B0200087D02000831
:100040007F0200087F0200087F0200087F0200088C
:100050007F0200087F0200087F0200087F0200087C
:100060007F0200087F0200087F0200087F0200086C
:100070007F0200087F0200087F0200087F0200085C
:100080007F0200087F0200087F02000800000000D5
:100090000000000000000000000000007F020008D7
:1000A0007F0200087F0200087F0200087F0200082C
:1000B0007F0200087F0200087F0200087F0200081C
:1000C0007F0200087F0200087F0200087F0200080C
:1000D0007F0200087F0200087F0200080000000085
:1000E0007F0200087F0200087F0200080000000075
:1000F0000000000000000000000000007F02000877
:10010000000000007F0200087F0200087F02000854
:1001100000000000000000000000000000000000DF
:100120007F0200087F0200087F0200087F020008AB
:100130007F02000800000000000000000000000036
:100140000000000000000000000000007F02000826
:100150007F0200087F0200087F0200087F0200087B
:100160007F0200087F02000800000000000000007D
:10017000000000000000000000000000000000007F
:10018000000000007F0200080000000000000000E6
:100190007F0200087F02000800F002F800F052F829
:1001A00014A696E8000CB244B344DA4501D100F03D
:1001B00049F8BAE80F000FA696E83000A5EB040551
:1001C00004EB0607AAEB0704A7F101074FEA151590
:1001D0004FEA3414A4F10104AC4201D300F032F828
:1001E00013F0010F18BFFB1A43F0010300F001F8F0
:1001F000DBE71847B4070000D4070000103A24BF1B
:1002000078C878C1FAD8520724BF30C830C144BF7B
:1002100004680C6070470000704700000023002451
:1002200000250026103A28BF78C1FBD8520728BF06
:1002300030C148BF0B6070471FB500F0A6FB1FBD63
:1002400010B510BD00F031F81146FFF7F5FF00F0D2
:100250003BFA00F04FF803B4FFF7F2FF03BC00F0E5
:1002600057F800000948804709480047FEE7FEE7C5
:10027000FEE7FEE7FEE7FEE7FEE7FEE7FEE7FEE756
:1002800004480549054A064B70470000F905000877
:10029000990100086800002068060020680200201C
:1002A00068020020704770477047754600F02CF8D0
:1002B000AE4605006946534620F00700854618B053
:1002C00020B5FFF7DDFFBDE820404FF000064FF0FE
:1002D00000074FF000084FF0000BAC46ACE8C00937
:1002E000ACE8C009ACE8C009ACE8C00921F00701DE
:1002F0008D46704710B50446AFF300802046BDE838
:100300001040FFF7A8BF0000004870470800002019
:1003100001491820ABBEFEE726000200704700002E
:1003200080B584B08DF80F0002919DF90F0001A9EE
:100330006A4600F06BF901980021C4F2020188427C
:1003400003D1FFE700F0EAF8FFE7019840F600016B
:10035000C4F20201884203D1FFE700F0F3F8FFE79F
:10036000019840F20041C4F20201884203D1FFE744
:1003700000F0DEF8FFE7019840F60041C4F2020108
:10038000884203D1FFE700F0E7F8FFE7019841F268
:100390000001C4F20201884203D1FFE700F0E6F851
:1003A000FFE7019841F60041C4F20201884203D1FF
:1003B000FFE700F0E5F8FFE79DF90F00029900F074
:1003C00003F804B080BD000080B584B08DF80F0044
:1003D00002919DF90F0001A96A4600F017F90098F3
:1003E0004100032000FA01F2019908689043086077
:1003F00002980099490000FA01F201990868104337
:10040000086004B080BD000080B584B08DF80F0096
:1004100002919DF90F0001A96A4600F0F7F80098D3
:100420004100032000FA01F2019988689043886036
:1004300002980099490000FA01F201998868104376
:10044000886004B080BD000080B584B08DF80F00D6
:1004500002919DF90F0001A96A4600F0D7F80298B1
:10046000009900FA01F2019948689043486004B08D
:1004700080BD000080B584B08DF80F0002919DF919
:100480000F0001A96A4600F0C1F80098410003205E
:1004900000FA01F20199C8689043C8600298009977
:1004A000490000FA01F20199C8681043C86004B01D
:1004B00080BD000080B584B08DF80F009DF90F005D
:1004C00002A901AA00F0A2F802980069019A01218C
:1004D0009140084004B080BD80B584B08DF80F0015
:1004E00002919DF90F0001A96A4600F08FF8029869
:1004F00048B1FFE70099012000FA01F2019948692B
:100500001043486108E00099012000FA01F20199C6
:10051000486990434861FFE704B080BD43F630016D
:10052000C4F20201086840F0010008607047000052
:1005300043F63001C4F20201086840F0020008608E
:100540007047000043F63001C4F20201086840F031
:10055000040008607047000043F63001C4F2020155
:10056000086840F0040008607047000043F630015E
:10057000C4F20201086840F00400086070470000FF
:1005800043F63001C4F20201086840F0040008603C
:100590007047000043F60001C4F20201086840F011
:1005A00001000860FFE743F60000C4F202000068A3
:1005B0008007002801D4FFE7F5E743F60801C4F2FD
:1005C0000201086820F00300086008680860FFE77F
:1005D00043F60800C4F20200006810F00C0F01D0CE
:1005E000FFE7F5E740F20001C2F2000142F20040ED
:1005F000C0F2F400086070474EF68851CEF2000158
:10060000086840F4700008607047000085B08DF8FD
:100610001300039102929DF8130000F00F00019067
:100620000198029908609DF913000011009000984C
:1006300030B9FFE703990020C4F20200086041E0EE
:100640000098012807D1FFE7039940F20040C4F267
:100650000200086035E00098022807D1FFE70399FF
:1006600040F60000C4F20200086029E00098032868
:1006700007D1FFE7039940F60040C4F2020008608A
:100680001DE00098042807D1FFE7039941F200001C
:10069000C4F20200086011E00098072807D1FFE7C4
:1006A000039941F60040C4F20200086005E0039996
:1006B0000020C4F202000860FFE7FFE7FFE7FFE762
:1006C000FFE7FFE705B0704780B584B000200090D9
:1006D000039000F033F800980290FFE702984CF680
:1006E000CD41CCF6CC41A0FB0121C90801EB810131
:1006F000A0EB410000F038F82D20FFF7DBFE20B919
:10070000FFE7029801300290FFE702980A2803D31E
:10071000FFE700200290FFE700200190FFE701982B
:1007200048F29F61C0F20101884205DCFFE7FFE764
:10073000019801300190F2E7D0E7000080B582B067
:10074000FFF728FF2D2001900021FFF7E9FD019818
:100750000121FFF78FFE40F6A410C0F6000000F064
:10076000D1F802B080BD000080B590B08DF83F0098
:100770009DF83F0001460E91092800F2C0800E99B5
:10078000DFE801F00517293B4E60738698AA052023
:1007900000210D91FFF7A0FE0D990620FFF79CFEAA
:1007A0000D990720FFF798FE0D990920FFF794FE99
:1007B000A5E005200121FFF78FFE062000210C9106
:1007C000FFF78AFE0C990720FFF786FE0C99092097
:1007D000FFF782FE93E0052000210B91FFF77CFEDE
:1007E00006200121FFF778FE0B990720FFF774FE22
:1007F0000B990920FFF770FE81E005200121099186
:10080000FFF76AFE09990620FFF766FE0720002120
:100810000A91FFF761FE0A990920FFF75DFE6EE07D
:10082000052000210891FFF757FE08990620FFF7E1
:1008300053FE07200121FFF74FFE08990920FFF71B
:100840004BFE5CE0052001210691FFF745FE0620E6
:1008500000210791FFF740FE06990720FFF73CFEB5
:1008600007990920FFF738FE49E00520002105918E
:10087000FFF732FE062001210491FFF72DFE0499B7
:100880000720FFF729FE05990920FFF725FE36E02E
:10089000052001210391FFF71FFE03990620FFF7B2
:1008A0001BFE03990720FFF717FE09200021FFF721
:1008B00013FE24E0052000210291FFF70DFE0299AE
:1008C0000620FFF709FE02990720FFF705FE092021
:1008D0000121FFF701FE12E0052001210191FFF740
:1008E000FBFD062000210091FFF7F6FD009907208F
:1008F000FFF7F2FD01990920FFF7EEFDFFE710B0C9
:1009000080BD000080B588B0079000200490FFE70C
:100910000498032826DCFFE707980499405606A9A7
:1009200005AAFFF773FE0798049940560121039129
:10093000FFF7F6FC07980499405600210291FFF753
:1009400083FD02990798049A8056FFF793FD039957
:100950000798049A8056FFF757FDFFE70498013087
:100960000490D5E7052000210191FFF7B5FD01991D
:100970000620FFF7B1FD01990720FFF7ADFD0199B2
:100980000920FFF7A9FD08B080BDF1EE100A4FF66F
:10099000FF71C0F2C03120EA010040F04070E1EE8A
:1009A000100A704705060709C80900080000002062
:1009B00008000000FC010008D00900080800002021
:1009C000600600001C0200080024F4000000000083
:040000050800019955
:00000001FF
