:020000040800F2
:1000000070060020650200086D0200086F020008FB
:100010007102000873020008750200080000000069
:10002000000000000000000000000000770200084F
:1000300079020008000000007B0200083D0800086B
:100040007F0200087F0200087F0200087F0200088C
:100050007F0200087F0200087F0200087F0200087C
:100060007F0200087F0200087F0200087F0200086C
:100070007F0200087F0200087F0200087F0200085C
:100080007F0200087F0200087F02000800000000D5
:100090000000000000000000000000007F020008D7
:1000A0007F0200087F0200087F0200087F0200082C
:1000B0007F0200087F0200087F0200087F0200081C
:1000C0007F0200087F0200087F0200087F0200080C
:1000D0007F0200087F0200087F0200080000000085
:1000E000210300087F0200087F02000800000000D2
:1000F0000000000000000000000000007F02000877
:10010000000000007F0200087F0200087F02000854
:1001100000000000000000000000000000000000DF
:100120007F0200087F0200087F0200087F020008AB
:100130007F02000800000000000000000000000036
:100140000000000000000000000000007F02000826
:100150007F0200087F0200087F0200087F0200087B
:100160007F0200087F02000800000000000000007D
:10017000000000000000000000000000000000007F
:10018000000000007F0200080000000000000000E6
:100190007F0200087F02000800F002F800F052F829
:1001A00014A696E8000CB244B344DA4501D100F03D
:1001B00049F8BAE80F000FA696E83000A5EB040551
:1001C00004EB0607AAEB0704A7F101074FEA151590
:1001D0004FEA3414A4F10104AC4201D300F032F828
:1001E00013F0010F18BFFB1A43F0010300F001F8F0
:1001F000DBE71847240C0000440C0000103A24BF31
:1002000078C878C1FAD8520724BF30C830C144BF7B
:1002100004680C6070470000704700000023002451
:1002200000250026103A28BF78C1FBD8520728BF06
:1002300030C148BF0B6070471FB500F0DEFD1FBD29
:1002400010B510BD00F031F81146FFF7F5FF00F0D2
:1002500069FC00F04FF803B4FFF7F2FF03BC00F0B5
:1002600057F800000948804709480047FEE7FEE7C5
:10027000FEE7FEE7FEE7FEE7FEE7FEE7FEE7FEE756
:1002800004480549054A064B704700000509000867
:100290009901000870000020700600207002002004
:1002A00070020020704770477047754600F02CF8C8
:1002B000AE4605006946534620F00700854618B053
:1002C00020B5FFF7DDFFBDE820404FF000064FF0FE
:1002D00000074FF000084FF0000BAC46ACE8C00937
:1002E000ACE8C009ACE8C009ACE8C00921F00701DE
:1002F0008D46704710B50446AFF300802046BDE838
:100300001040FFF7A8BF0000004870470800002019
:1003100001491820ABBEFEE726000200704700002E
:1003200080B52D2000F0E2FB68B1FFE740F26800E5
:10033000C2F2000000210160007800F04DFC2D2089
:1003400000F05EFBFFE780BD80B588B08DF81F0030
:10035000069105929DF91F0004A903AA00F068FB0D
:1003600043F64401C4F20201086840F4804008608A
:1003700004980021C4F20201884203D1FFE7002063
:10038000029026E0049840F20041C4F20201884243
:1003900003D1FFE7012002901AE0049840F6000123
:1003A000C4F20201884203D1FFE7022002900EE06E
:1003B000049840F60041C4F20201884203D1FFE7ED
:1003C0000320029002E004200290FFE7FFE7FFE72E
:1003D000FFE7039800F003018A000F2101FA02F3FE
:1003E00020F0030143F60802C4F201028858984342
:1003F00088500299039800F003039B0001FA03F36D
:1004000020F00301885818438850069860B9FFE728
:100410000399012000FA01F243F60C41C4F20101F4
:100420000868104308602BE0069801280CD1FFE70C
:100430000399012000FA01F243F60841C4F20101D8
:100440000868104308601AE00698022816D1FFE7F2
:100450000399012000FA01F343F60842C4F20102B5
:10046000116819431160039900FA01F243F60C4137
:10047000C4F20101086810430860FFE7FFE7FFE7E7
:100480000399012000FA01F243F60041C4F2010190
:10049000086810430860002001900398042804D8DD
:1004A000FFE70398063001900AE00398092803D873
:1004B000FFE71720019002E028200190FFE7FFE707
:1004C0009DF90400059900F057FA9DF9040000F029
:1004D00023FA08B080BD000080B584B08DF80F000D
:1004E00002919DF90F0001A96A4600F0A1FA019856
:1004F0000021C4F20201884203D1FFE700F0D8F8DE
:10050000FFE7019840F60001C4F20201884203D1DE
:10051000FFE700F0E1F8FFE7019840F20041C4F284
:100520000201884203D1FFE700F0CCF8FFE7019811
:1005300040F60041C4F20201884203D1FFE700F017
:10054000D5F8FFE7019841F20001C4F202018842A8
:1005500003D1FFE700F0D4F8FFE7019841F600412E
:10056000C4F20201884203D1FFE700F0D3F8FFE7AD
:100570009DF90F00029900F003F804B080BD00005F
:1005800080B584B08DF80F0002919DF90F0001A98C
:100590006A4600F04DFA00984100032000FA01F28B
:1005A000019908689043086002980099490000FA90
:1005B00001F2019908681043086004B080BD000092
:1005C00080B584B08DF80F0002919DF90F0001A94C
:1005D0006A4600F02DFA00984100032000FA01F26B
:1005E000019988689043886002980099490000FA50
:1005F00001F2019988681043886004B080BD000052
:1006000080B584B08DF80F0002919DF90F0001A90B
:100610006A4600F00DFA0298009900FA01F2019979
:1006200048689043486004B080BD000080B584B045
:100630008DF80F0002919DF90F0001A96A4600F0A4
:10064000F7F900984100032000FA01F20199C86807
:100650009043C86002980099490000FA01F201999C
:10066000C8681043C86004B080BD000080B584B085
:100670008DF80F0002919DF90F0001A96A4600F064
:10068000D7F9029848B1FFE70099012000FA01F27A
:10069000019948691043486108E00099012000FA77
:1006A00001F20199486990434861FFE704B080BDB9
:1006B00043F63001C4F20201086840F0010008600E
:1006C0007047000043F63001C4F20201086840F0B0
:1006D000020008607047000043F63001C4F20201D6
:1006E000086840F0040008607047000043F63001DD
:1006F000C4F20201086840F004000860704700007E
:1007000043F63001C4F20201086840F004000860BA
:100710007047000043F63001C4F20201086840F05F
:10072000040008607047000081B043F60041C4F245
:100730000201086820F007000860086840F0020025
:10074000086043F60001C4F20201086840F00100AD
:100750000860FFE743F60000C4F20200006880076B
:10076000002801D4FFE7F5E743F60001C4F20201D7
:10077000086820F08070086043F60402C4F20202A8
:100780000092106820F480001060106810601068FB
:10079000542363F38E1010601068082363F3050080
:1007A0001060106820F440301060086840F08070DD
:1007B0000860FFE743F60000C4F20200006800F0A2
:1007C00000710020B0EB516F01D0FFE7F2E743F674
:1007D0000801C4F20201086820F0030008600868FC
:1007E00040F002000860FFE743F60800C4F2020090
:1007F000006800F00C00082801D0FFE7F4E743F69A
:100800000801C4F20201086820F0F00008600868DE
:1008100020F4E0500860086840F4805008600868E0
:1008200020F46040086040F20001C2F200014BF683
:100830000050C0F20150086001B0704780B500F070
:1008400023F840F26C00C2F200000068B0F57A7F35
:1008500019D3FFE740F26C01C2F2000100200860EA
:1008600040F26800C2F200000168013101600068D6
:100870000A2807D3FFE740F26801C2F20001002016
:100880000860FFE7FFE780BD40F26C01C2F20001A3
:10089000086801300860704780B582B04EF21001E0
:1008A000CEF20001086840F002000860086840F0DD
:1008B000010008604FF0FF300190022100F07EF847
:1008C000019800F041F802B080BD000080B54EF202
:1008D0001002CEF2000200201060116841F0040105
:1008E00011604EF21402CEF2000244F61F01C0F273
:1008F000010111604EF21801CEF200010860FFF70D
:10090000CBFF80BD4EF68851CEF20001086840F45E
:10091000700008607047000081B08DF803009DF9F9
:10092000030000280ED4FFE79DF9031001F01F0219
:10093000012090404A094EF20011CEF2000141F828
:100940002200FFE701B0704781B08DF803009DF9E8
:10095000030000280ED4FFE79DF9031001F01F02E9
:10096000012090404A094EF20011CEF2000141F8F8
:100970002200FFE701B0704782B08DF807000091B8
:100980009DF9070000280AD4FFE7009800019DF9AF
:1009900007104EF20042CEF2000288540BE000989D
:1009A00000019DF8071001F00F014EF61452CEF22F
:1009B00000028854FFE702B07047000082B08DF853
:1009C000070000919DF9070000280AD4FFE700986E
:1009D00000019DF907104EF20042CEF20002885449
:1009E0000BE0009800019DF8071001F00F014EF692
:1009F0001452CEF200028854FFE702B070470000A4
:100A000080B584B08DF80F009DF90F0002A901AAEE
:100A100000F00EF80199012000FA01F243F61441AA
:100A2000C4F20101086860EA0200086004B080BDF9
:100A300085B08DF81300039102929DF8130000F029
:100A40000F0001900198029908609DF913000011B0
:100A50000090009830B9FFE703990020C4F202002B
:100A6000086041E00098012807D1FFE7039940F2B0
:100A70000040C4F20200086035E00098022807D167
:100A8000FFE7039940F60000C4F20200086029E085
:100A90000098032807D1FFE7039940F60040C4F20D
:100AA000020008601DE00098042807D1FFE70399C1
:100AB00041F20000C4F20200086011E0009807282B
:100AC00007D1FFE7039941F60040C4F20200086035
:100AD00005E003990020C4F202000860FFE7FFE789
:100AE000FFE7FFE7FFE7FFE705B0704780B584B099
:100AF0008DF80F009DF90F0002A901AAFFF798FFDA
:100B0000019901208840009043F61440C4F201008E
:100B1000006800990840401AB0FA80F0400904B01B
:100B200080BD000080B582B00020019000F014F874
:100B3000FFE740F26800C2F2000000684CF6CD41C9
:100B4000CCF6CC41A0FB0121C90801EB8101A0EB4F
:100B5000410000F041F8ECE780B586B0FFF7E4FD16
:100B6000FFF7B4FE2D20039000210491FFF7B4FCA1
:100B700003980121FFF75AFD04980590FFE70598B7
:100B800003281CDCFFE7059940F61460C0F600005E
:100B90000290405600210191FFF748FD019902980B
:100BA000059A8056FFF72CFD0298059940560121C1
:100BB000FFF706FDFFE7059801300590DFE740F6F7
:100BC0001460C0F6000000F0D5F82D2000210122AD
:100BD000FFF7BAFB06B080BD80B590B08DF83F003E
:100BE0009DF83F0001460E91092800F2C0800E9941
:100BF000DFE801F00517293B4E60738698AA0520AF
:100C000000210D91FFF732FD0D990620FFF72EFD13
:100C10000D990720FFF72AFD0D990920FFF726FD02
:100C2000A5E005200121FFF721FD062000210C9100
:100C3000FFF71CFD0C990720FFF718FD0C99092000
:100C4000FFF714FD93E0052000210B91FFF70EFD47
:100C500006200121FFF70AFD0B990720FFF706FD8B
:100C60000B990920FFF702FD81E005200121099180
:100C7000FFF7FCFC09990620FFF7F8FC072000218C
:100C80000A91FFF7F3FC0A990920FFF7EFFC6EE0E9
:100C9000052000210891FFF7E9FC08990620FFF7DD
:100CA000E5FC07200121FFF7E1FC08990920FFF787
:100CB000DDFC5CE0052001210691FFF7D7FC062052
:100CC00000210791FFF7D2FC06990720FFF7CEFC21
:100CD00007990920FFF7CAFC49E00520002105918A
:100CE000FFF7C4FC062001210491FFF7BFFC049923
:100CF0000720FFF7BBFC05990920FFF7B7FC36E09A
:100D0000052001210391FFF7B1FC03990620FFF7AD
:100D1000ADFC03990720FFF7A9FC09200021FFF78C
:100D2000A5FC24E0052000210291FFF79FFC029919
:100D30000620FFF79BFC02990720FFF797FC09208C
:100D40000121FFF793FC12E0052001210191FFF73B
:100D50008DFC062000210091FFF788FC00990720F8
:100D6000FFF784FC01990920FFF780FCFFE710B032
:100D700080BD000080B588B0079000200490FFE798
:100D80000498032826DCFFE707980499405606A933
:100D900005AAFFF74DFE07980499405601210391DB
:100DA000FFF79AFB07980499405600210291FFF73C
:100DB00027FC02990798049A8056FFF737FC03999D
:100DC0000798049A8056FFF7FBFBFFE70498013071
:100DD0000490D5E7052000210191FFF747FC019918
:100DE0000620FFF743FC01990720FFF73FFC01991C
:100DF0000920FFF73BFC08B080BDF1EE100A4FF66A
:100E0000FF71C0F2C03120EA010040F04070E1EE15
:100E1000100A704705060709380E00080000002078
:100E200008000000FC010008400E00080800002037
:100E3000680600001C0200080024F4000000000006
:040000050800019955
:00000001FF
