:020000040800F2
:1000000070060020650200086D0200086F020008FB
:100010007102000873020008750200080000000069
:10002000000000000000000000000000770200084F
:1000300079020008000000007B0200085108000857
:100040007F0200087F0200087F0200087F0200088C
:100050007F0200087F0200087F0200087F0200087C
:100060007F0200087F0200087F0200087F0200086C
:100070007F0200087F0200087F0200087F0200085C
:100080007F0200087F0200087F02000800000000D5
:100090000000000000000000000000007F020008D7
:1000A0007F0200087F0200087F0200087F0200082C
:1000B0007F0200087F0200087F0200087F0200081C
:1000C0007F0200087F0200087F0200087F0200080C
:1000D0007F0200087F0200087F0200080000000085
:1000E000210300087F0200087F02000800000000D2
:1000F0000000000000000000000000007F02000877
:10010000000000007F0200087F0200087F02000854
:1001100000000000000000000000000000000000DF
:100120007F0200087F0200087F0200087F020008AB
:100130007F02000800000000000000000000000036
:100140000000000000000000000000007F02000826
:100150007F0200087F0200087F0200087F0200087B
:100160007F0200087F02000800000000000000007D
:10017000000000000000000000000000000000007F
:10018000000000007F0200080000000000000000E6
:100190007F0200087F02000800F002F800F052F829
:1001A00014A696E8000CB244B344DA4501D100F03D
:1001B00049F8BAE80F000FA696E83000A5EB040551
:1001C00004EB0607AAEB0704A7F101074FEA151590
:1001D0004FEA3414A4F10104AC4201D300F032F828
:1001E00013F0010F18BFFB1A43F0010300F001F8F0
:1001F000DBE71847E40B0000040C0000103A24BFB2
:1002000078C878C1FAD8520724BF30C830C144BF7B
:1002100004680C6070470000704700000023002451
:1002200000250026103A28BF78C1FBD8520728BF06
:1002300030C148BF0B6070471FB500F0BEFD1FBD49
:1002400010B510BD00F031F81146FFF7F5FF00F0D2
:1002500049FC00F04FF803B4FFF7F2FF03BC00F0D5
:1002600057F800000948804709480047FEE7FEE7C5
:10027000FEE7FEE7FEE7FEE7FEE7FEE7FEE7FEE756
:1002800004480549054A064B70470000C5080008A8
:100290009901000870000020700600207002002004
:1002A00070020020704770477047754600F02CF8C8
:1002B000AE4605006946534620F00700854618B053
:1002C00020B5FFF7DDFFBDE820404FF000064FF0FE
:1002D00000074FF000084FF0000BAC46ACE8C00937
:1002E000ACE8C009ACE8C009ACE8C00921F00701DE
:1002F0008D46704710B50446AFF300802046BDE838
:100300001040FFF7A8BF0000004870470800002019
:1003100001491820ABBEFEE726000200704700002E
:1003200080B52D2000F0C2FBB0B1FFE740F26800BD
:10033000C2F2000001680131016000680A2807D399
:10034000FFE740F26801C2F2000100200860FFE709
:100350002D2000F035FBFFE780BD000080B588B0A0
:100360008DF81F00069105929DF91F0004A903AAAC
:1003700000F03EFB43F64401C4F20201086840F479
:100380008040086004980021C4F20201884203D131
:10039000FFE70020029026E0049840F20041C4F2FA
:1003A0000201884203D1FFE7012002901AE004987D
:1003B00040F60001C4F20201884203D1FFE70220A7
:1003C00002900EE0049840F60041C4F20201884217
:1003D00003D1FFE70320029002E004200290FFE730
:1003E000FFE7FFE7FFE7039800F003018A000F2112
:1003F00001FA02F320F0030143F60802C4F20102FD
:100400008858984388500299039800F003039B0092
:1004100001FA03F320F00301885818438850069826
:1004200060B9FFE70399012000FA01F243F60C419D
:10043000C4F201010868104308602BE00698012807
:100440000CD1FFE70399012000FA01F243F60841BD
:10045000C4F201010868104308601AE006980228F7
:1004600016D1FFE70399012000FA01F343F6084291
:10047000C4F20102116819431160039900FA01F2F4
:1004800043F60C41C4F20101086810430860FFE71D
:10049000FFE7FFE70399012000FA01F243F600416C
:1004A000C4F201010868104308600020019003981D
:1004B000042804D8FFE70398063001900AE0039867
:1004C000092803D8FFE71720019002E028200190B7
:1004D000FFE7FFE79DF90400059900F02DFA9DF96B
:1004E000040000F0F9F908B080BD000080B584B0C8
:1004F0008DF80F0002919DF90F0001A96A4600F0E6
:1005000077FA01980021C4F20201884203D1FFE783
:1005100000F0D8F8FFE7019840F60001C4F20201AC
:10052000884203D1FFE700F0E1F8FFE7019840F2CD
:100530000041C4F20201884203D1FFE700F0CCF889
:10054000FFE7019840F60041C4F20201884203D15E
:10055000FFE700F0D5F8FFE7019841F20001C4F28F
:100560000201884203D1FFE700F0D4F8FFE70198C9
:1005700041F60041C4F20201884203D1FFE700F0D6
:10058000D3F8FFE79DF90F00029900F003F804B0DB
:1005900080BD000080B584B08DF80F0002919DF9F8
:1005A0000F0001A96A4600F023FA009841000320D9
:1005B00000FA01F2019908689043086002980099D6
:1005C000490000FA01F2019908681043086004B07C
:1005D00080BD000080B584B08DF80F0002919DF9B8
:1005E0000F0001A96A4600F003FA009841000320B9
:1005F00000FA01F201998868904388600298009996
:10060000490000FA01F2019988681043886004B03B
:1006100080BD000080B584B08DF80F0002919DF977
:100620000F0001A96A4600F0E3F90298009900FA68
:1006300001F2019948689043486004B080BD000011
:1006400080B584B08DF80F0002919DF90F0001A9CB
:100650006A4600F0CDF900984100032000FA01F24B
:100660000199C8689043C86002980099490000FA4F
:1006700001F20199C8681043C86004B080BD000051
:1006800080B584B08DF80F0002919DF90F0001A98B
:100690006A4600F0ADF9029848B1FFE700990120E1
:1006A00000FA01F2019948691043486108E0009995
:1006B000012000FA01F20199486990434861FFE77F
:1006C00004B080BD43F63001C4F20201086840F076
:1006D000010008607047000043F63001C4F20201D7
:1006E000086840F0020008607047000043F63001DF
:1006F000C4F20201086840F004000860704700007E
:1007000043F63001C4F20201086840F004000860BA
:100710007047000043F63001C4F20201086840F05F
:10072000040008607047000043F63001C4F2020183
:10073000086840F0040008607047000081B043F68C
:100740000041C4F20201086820F007000860086850
:1007500040F00200086043F60001C4F2020108689C
:1007600040F001000860FFE743F60000C4F2020019
:1007700000688007002801D4FFE7F5E743F6000191
:10078000C4F20201086820F08070086043F6040299
:10079000C4F202020092106820F480001060106819
:1007A00010601068542363F38E10106010680823E3
:1007B00063F305001060106820F440301060086892
:1007C00040F080700860FFE743F60000C4F20200CA
:1007D000006800F000710020B0EB516F01D0FFE71E
:1007E000F2E743F60801C4F20201086820F00300B2
:1007F0000860086840F002000860FFE743F6080060
:10080000C4F20200006800F00C00082801D0FFE7E5
:10081000F4E743F60801C4F20201086820F0F00092
:100820000860086820F4E0500860086840F48050D0
:100830000860086820F46040086040F20001C2F2DD
:1008400000014BF60050C0F20150086001B0704743
:1008500080B500F001F880BD40F26C01C2F20001E9
:10086000086801300860704780B582B04EF2100110
:10087000CEF20001002008600A6842F004020A601B
:100880004EF21403CEF2000344F61F02C0F201023E
:100890001A604EF21802CEF200021060086840F0B2
:1008A00002000860086840F0010008604FF0FF3067
:1008B0000190102100F062F8019800F025F802B0D4
:1008C00080BD00004EF68851CEF20001086840F469
:1008D000700008607047000081B08DF803009DF93A
:1008E000030000280ED4FFE79DF9031001F01F025A
:1008F000012090404A094EF20011CEF2000141F869
:100900002200FFE701B0704781B08DF803009DF928
:10091000030000280ED4FFE79DF9031001F01F0229
:10092000012090404A094EF20011CEF2000141F838
:100930002200FFE701B0704782B08DF807000091F8
:100940009DF9070000280AD4FFE7009800019DF9EF
:1009500007104EF20042CEF2000288540BE00098DD
:1009600000019DF8071001F00F014EF61452CEF26F
:1009700000028854FFE702B07047000082B08DF893
:10098000070000919DF9070000280AD4FFE70098AE
:1009900000019DF907104EF20042CEF20002885489
:1009A0000BE0009800019DF8071001F00F014EF6D2
:1009B0001452CEF200028854FFE702B070470000E4
:1009C00080B584B08DF80F009DF90F0002A901AA2F
:1009D00000F00EF80199012000FA01F243F61441EB
:1009E000C4F20101086860EA0200086004B080BD3A
:1009F00085B08DF81300039102929DF8130000F06A
:100A00000F0001900198029908609DF913000011F0
:100A10000090009830B9FFE703990020C4F202006B
:100A2000086041E00098012807D1FFE7039940F2F0
:100A30000040C4F20200086035E00098022807D1A7
:100A4000FFE7039940F60000C4F20200086029E0C5
:100A50000098032807D1FFE7039940F60040C4F24D
:100A6000020008601DE00098042807D1FFE7039901
:100A700041F20000C4F20200086011E0009807286B
:100A800007D1FFE7039941F60040C4F20200086075
:100A900005E003990020C4F202000860FFE7FFE7C9
:100AA000FFE7FFE7FFE7FFE705B0704780B584B0D9
:100AB0008DF80F009DF90F0002A901AAFFF798FF1A
:100AC000019901208840009043F61440C4F20100CF
:100AD000006800990840401AB0FA80F0400904B05C
:100AE00080BD000080B582B00020019000F014F8B5
:100AF000FFE740F26800C2F2000000684CF6CD410A
:100B0000CCF6CC41A0FB0121C90801EB8101A0EB8F
:100B1000410000F041F8ECE780B586B0FFF70EFE2B
:100B2000FFF7A2FE2D20039000210491FFF7DEFCC9
:100B300003980121FFF784FD04980590FFE70598CD
:100B400003281CDCFFE7059940F6D450C0F60000EE
:100B50000290405600210191FFF772FD0199029821
:100B6000059A8056FFF756FD0298059940560121D7
:100B7000FFF730FDFFE7059801300590DFE740F60D
:100B8000D450C0F6000000F0D5F82D20002101223D
:100B9000FFF7E4FB06B080BD80B590B08DF83F0054
:100BA0009DF83F0001460E91092800F2C0800E9981
:100BB000DFE801F00517293B4E60738698AA0520EF
:100BC00000210D91FFF75CFD0D990620FFF758FD00
:100BD0000D990720FFF754FD0D990920FFF750FDEF
:100BE000A5E005200121FFF74BFD062000210C9117
:100BF000FFF746FD0C990720FFF742FD0C990920ED
:100C0000FFF73EFD93E0052000210B91FFF738FD33
:100C100006200121FFF734FD0B990720FFF730FD77
:100C20000B990920FFF72CFD81E005200121099196
:100C3000FFF726FD09990620FFF722FD0720002176
:100C40000A91FFF71DFD0A990920FFF719FD6EE0D3
:100C5000052000210891FFF713FD08990620FFF7F2
:100C60000FFD07200121FFF70BFD08990920FFF771
:100C700007FD5CE0052001210691FFF701FD06203C
:100C800000210791FFF7FCFC06990720FFF7F8FC0D
:100C900007990920FFF7F4FC49E0052000210591A0
:100CA000FFF7EEFC062001210491FFF7E9FC04990F
:100CB0000720FFF7E5FC05990920FFF7E1FC36E086
:100CC000052001210391FFF7DBFC03990620FFF7C4
:100CD000D7FC03990720FFF7D3FC09200021FFF779
:100CE000CFFC24E0052000210291FFF7C9FC029906
:100CF0000620FFF7C5FC02990720FFF7C1FC092079
:100D00000121FFF7BDFC12E0052001210191FFF751
:100D1000B7FC062000210091FFF7B2FC00990720E4
:100D2000FFF7AEFC01990920FFF7AAFCFFE710B01E
:100D300080BD000080B588B0079000200490FFE7D8
:100D40000498032826DCFFE707980499405606A973
:100D500005AAFFF74DFE079804994056012103911B
:100D6000FFF7C4FB07980499405600210291FFF752
:100D700051FC02990798049A8056FFF761FC039989
:100D80000798049A8056FFF725FCFFE70498013086
:100D90000490D5E7052000210191FFF771FC01992E
:100DA0000620FFF76DFC01990720FFF769FC019908
:100DB0000920FFF765FC08B080BDF1EE100A4FF680
:100DC000FF71C0F2C03120EA010040F04070E1EE56
:100DD000100A704705060709F80D000800000020FA
:100DE00008000000FC010008000E000808000020B8
:100DF000680600001C0200080024F4000000000047
:040000050800019955
:00000001FF
