:020000040800F2
:1000000070060020650200086D0200086F020008FB
:100010007102000873020008750200080000000069
:10002000000000000000000000000000770200084F
:1000300079020008000000007B0200087D02000831
:100040007F0200087F0200087F0200087F0200088C
:100050007F0200087F0200087F0200087F0200087C
:100060007F0200087F0200087F0200087F0200086C
:100070007F0200087F0200087F0200087F0200085C
:100080007F0200087F0200087F02000800000000D5
:100090000000000000000000000000007F020008D7
:1000A0007F0200087F0200087F0200087F0200082C
:1000B0007F0200087F0200087F0200087F0200081C
:1000C0007F0200087F0200087F0200087F0200080C
:1000D0007F0200087F0200087F0200080000000085
:1000E0007F0200087F0200087F0200080000000075
:1000F0000000000000000000000000007F02000877
:10010000000000007F0200087F0200087F02000854
:1001100000000000000000000000000000000000DF
:100120007F0200087F0200087F0200087F020008AB
:100130007F02000800000000000000000000000036
:100140000000000000000000000000007F02000826
:100150007F0200087F0200087F0200087F0200087B
:100160007F0200087F02000800000000000000007D
:10017000000000000000000000000000000000007F
:10018000000000007F0200080000000000000000E6
:100190007F0200087F02000800F002F800F052F829
:1001A00014A696E8000CB244B344DA4501D100F03D
:1001B00049F8BAE80F000FA696E83000A5EB040551
:1001C00004EB0607AAEB0704A7F101074FEA151590
:1001D0004FEA3414A4F10104AC4201D300F032F828
:1001E00013F0010F18BFFB1A43F0010300F001F8F0
:1001F000DBE718471806000038060000103A24BF55
:1002000078C878C1FAD8520724BF30C830C144BF7B
:1002100004680C6070470000704700000023002451
:1002200000250026103A28BF78C1FBD8520728BF06
:1002300030C148BF0B6070471FB500F0DAFA1FBD30
:1002400010B510BD00F031F81146FFF7F5FF00F0D2
:100250001BFA00F04FF803B4FFF7F2FF03BC00F005
:1002600057F800000948804709480047FEE7FEE7C5
:10027000FEE7FEE7FEE7FEE7FEE7FEE7FEE7FEE756
:1002800004480549054A064B70470000B9050008B7
:100290009901000870000020700600207002002004
:1002A00070020020704770477047754600F02CF8C8
:1002B000AE4605006946534620F00700854618B053
:1002C00020B5FFF7DDFFBDE820404FF000064FF0FE
:1002D00000074FF000084FF0000BAC46ACE8C00937
:1002E000ACE8C009ACE8C009ACE8C00921F00701DE
:1002F0008D46704710B50446AFF300802046BDE838
:100300001040FFF7A8BF0000004870471000002011
:1003100001491820ABBEFEE726000200704700002E
:1003200080B584B08DF80F0002919DF90F0001A9EE
:100330006A4600F04BF901980021C4F2020188429C
:1003400003D1FFE700F0CAF8FFE7019840F600018B
:10035000C4F20201884203D1FFE700F0D3F8FFE7BF
:10036000019840F20041C4F20201884203D1FFE744
:1003700000F0BEF8FFE7019840F60041C4F2020128
:10038000884203D1FFE700F0C7F8FFE7019841F288
:100390000001C4F20201884203D1FFE700F0C6F871
:1003A000FFE7019841F60041C4F20201884203D1FF
:1003B000FFE700F0C5F8FFE79DF90F00029900F094
:1003C00003F804B080BD000080B584B08DF80F0044
:1003D00002919DF90F0001A96A4600F0F7F8009814
:1003E0004100032000FA01F2019908689043086077
:1003F00002980099490000FA01F201990868104337
:10040000086004B080BD000080B584B08DF80F0096
:1004100002919DF90F0001A96A4600F0D7F80298F1
:10042000009900FA01F2019948689043486004B0CD
:1004300080BD000080B584B08DF80F0002919DF959
:100440000F0001A96A4600F0C1F80098410003209E
:1004500000FA01F20199C8689043C86002980099B7
:10046000490000FA01F20199C8681043C86004B05D
:1004700080BD000080B584B08DF80F009DF90F009D
:1004800002A901AA00F0A2F802980069019A0121CC
:100490009140084004B080BD80B584B08DF80F0055
:1004A00002919DF90F0001A96A4600F08FF80298A9
:1004B00048B1FFE70099012000FA01F2019948696B
:1004C0001043486108E00099012000FA01F2019907
:1004D000486990434861FFE704B080BD43F63001AE
:1004E000C4F20201086840F0010008607047000093
:1004F00043F63001C4F20201086840F002000860CF
:100500007047000043F63001C4F20201086840F071
:10051000040008607047000043F63001C4F2020195
:10052000086840F0040008607047000043F630019E
:10053000C4F20201086840F004000860704700003F
:1005400043F63001C4F20201086840F0040008607C
:100550007047000043F60001C4F20201086840F051
:1005600001000860FFE743F60000C4F202000068E3
:100570008007002801D4FFE7F5E743F60801C4F23D
:100580000201086820F00300086008680860FFE7BF
:1005900043F60800C4F20200006810F00C0F01D00E
:1005A000FFE7F5E740F20001C2F2000142F200402D
:1005B000C0F2F400086070474EF68851CEF2000198
:1005C000086840F4700008607047000085B08DF83E
:1005D0001300039102929DF8130000F00F000190A8
:1005E0000198029908609DF913000011009000988D
:1005F00030B9FFE703990020C4F20200086041E02F
:100600000098012807D1FFE7039940F20040C4F2A7
:100610000200086035E00098022807D1FFE703993F
:1006200040F60000C4F20200086029E000980328A8
:1006300007D1FFE7039940F60040C4F202000860CA
:100640001DE00098042807D1FFE7039941F200005C
:10065000C4F20200086011E00098072807D1FFE704
:10066000039941F60040C4F20200086005E00399D6
:100670000020C4F202000860FFE7FFE7FFE7FFE7A2
:10068000FFE7FFE705B0704780B586B00020009017
:10069000059000F07BF800980490039001210291EE
:1006A0000190FFE7019803280EDCFFE7019940F273
:1006B0000400C2F2000040560021FFF7EDFEFFE704
:1006C000019801300190EDE7FFE740F20800C2F227
:1006D000000090F90000FFF7CDFE04900498E8B9FF
:1006E000FFE70298012819D1FFE70020029003904C
:1006F000039940F20400C2F2000040560121FFF7C6
:10070000CBFEFFE740F20800C2F2000090F90000C3
:10071000FFF7B0FE08B9FFE7F4E735E0049890BBB7
:10072000FFE7029878BBFFE7039940F20400C2F2AA
:10073000000040560021FFF7AFFE03980130C117BB
:1007400000EB917121F00301401A0390039818B94E
:10075000FFE70120029009E0039940F20400C2F291
:10076000000040560121FFF797FEFFE7FFE740F248
:100770000800C2F2000090F90000FFF77BFE08B904
:10078000FFE7F4E7FFE7FFE79FE7000080B584B0ED
:10079000FFF7E0FE40F20800C2F20000019090F97D
:1007A000000000210291FFF7BBFD019890F90000C5
:1007B0000121FFF73FFE02980390FFE7039803280B
:1007C00015DCFFE7039940F20400C2F2000000903C
:1007D00040560121FFF7A4FD0098039940560021DF
:1007E000FFF712FEFFE7039801300390E6E704B03D
:1007F00080BDF1EE100A4FF6FF71C0F2C03120EA61
:10080000010040F04070E1EE100A70473008000827
:100810000000002010000000FC0100084008000853
:1008200010000020600600001C020008000000000C
:100830000024F400050607162D000000000000004B
:040000050800019955
:00000001FF
